:100000000C942A000C943C000C943C000C943C0092
:100010000C9483010C943C000C943C000C943C0028
:100020000C943C000C943C000C943C000C943C0060
:100030000C943C000C943C000C943C000C943C0050
:100040000C943C000C943C000C943C000C943C0040
:100050000C943C0011241FBECFE5D8E0DEBFCDBF1D
:1000600020E0A0E6B0E001C01D92A637B207E1F79C
:100070000E9407010C94AC010C940000843008F03D
:100080007EC0683008F07BC0423008F078C0813014
:1000900019F130F08230E1F1833009F455C0089550
:1000A000442319F0413069F008952AB381E090E0CB
:1000B00002C0880F991F6A95E2F7809582238ABB58
:1000C00008952AB381E090E002C0880F991F6A95D5
:1000D000E2F7822B8ABB0895442319F0413069F07E
:1000E000089527B381E090E002C0880F991F6A95B8
:1000F000E2F78095822387BB089527B381E090E0E3
:1001000002C0880F991F6A95E2F7822B87BB08957A
:10011000442319F0413069F0089524B381E090E060
:1001200002C0880F991F6A95E2F78095822384BBED
:10013000089524B381E090E002C0880F991F6A956A
:10014000E2F7822B84BB0895442319F0413069F013
:10015000089521B381E090E002C0880F991F6A954D
:10016000E2F78095822381BB089521B381E090E07E
:1001700002C0880F991F6A95E2F7822B81BB089510
:100180008430A8F5683098F5813089F028F0823005
:10019000C9F0833011F108952BB381E090E002C0E3
:1001A000880F991F6A95E2F782278BBB089528B3C1
:1001B00081E090E002C0880F991F6A95E2F78227DC
:1001C00088BB089525B381E090E002C0880F991F95
:1001D0006A95E2F7822785BB089522B381E090E01B
:1001E00002C0880F991F6A95E2F7822782BB0895A3
:1001F00088B360E00E94C000089588B361E00E9467
:10020000C000089588B362E00E94C000089588B3DA
:1002100041E060E00E943E0088B341E061E00E945E
:100220003E0088B341E062E00E943E000E946F0100
:1002300048EF50E064E670E080E00E944B014DEF33
:1002400050E068EC70E081E00E944B0142E051E038
:1002500064EF71E082E00E944B010E9479010E94EC
:10026000F80087EA91E60197F1F700C000000E94CC
:10027000FD008FE493EC0197F1F700C000000E94AD
:1002800002019FE926E881E0915020408040E1F79B
:1002900000C00000E4CF843008F541155105F1F0AD
:1002A00090E0FC01EE0FFF1FEE0FFF1FE80FF91F9C
:1002B000E05AFF4F20813181232B81F4FC01EE0FA6
:1002C000FF1FEE0FFF1F8E0F9F1FFC01E05AFF4F15
:1002D000518340837383628382E08483089585B56C
:1002E0008F7B85BD85B5886085BD89B7806889BFEE
:1002F000089585B58E7F85BD85B58D7F85BD85B516
:10030000846085BD08951F920F920FB60F9211243D
:100310002F933F934F935F936F937F938F939F930D
:10032000AF93BF93EF93FF93E0917400F09175004A
:10033000309709F00995FF91EF91BF91AF919F918F
:100340008F917F916F915F914F913F912F910F907E
:0C0350000FBE0F901F901895F894FFCF7F
:00000001FF
